:020000020000FC
:100000000C942A000C94F8000C94F8000C94F8005E
:100010000C94F8000C94F8000C94F8000C94F80080
:100020000C94F8000C94F8000C94F8000C94F80070
:100030000C94F8000C94F8000C94F8000C94F80060
:100040000C94F8000C94F8000C94F8000C94FA004E
:100050000C94FA0004E00EBF0FE50DBF0E943700BC
:100060000E9451000E94E8000E94F400F9CF0E9413
:100070004D001127222733270FEF01BB12BB0FEFD3
:1000800004BB25BB0FEF0ABB3BBB00E207BB0BED7C
:1000900008BB00E20BBF7894089500E804BF04BFDA
:1000A00008950E945D000A3D29F0093D19F0033DC5
:1000B00009F002C00E946000089506B30B7D089508
:1000C000F89440E40E94D5000E94DB000E947D006D
:1000D0000B3CE1F778940BEF08BB00000000000038
:1000E000000000000000000000000BED08BB4427EA
:1000F0000E94D8000E94DB0008950E945D000B3C26
:10010000A9F0093D29F00A3D41F0033D59F00EC028
:100110000E9497000E94DB0009C00E94A1000E947B
:10012000DB0004C00E94B9000E94DB000895403249
:1001300011F0479501C040E80E94D8000E94D50008
:100140000895403829F0403441F0403259F00EC053
:1001500013951C3358F0112709C023952C3330F028
:10016000222704C03395383108F033270E94F40069
:100170000895403829F0403449F0403269F012C007
:100180001A951F3F79F018E11A950CC02A952F3F58
:1001900049F02CE32A9506C03A953F3F19F03CE31D
:1001A0003A9500C00E94F4000895342B3BBB08959B
:1001B0003F713BBB0895FF27EE27DD27F395E395BD
:1001C000D395DF3FE9F7E83FD1F7F130B9F708956C
:1001D0001C3348F0112723952C3328F02227339520
:1001E000383108F03327089512BB25BB3BBB089577
:0401F00013951895B6
:00000001FF
