:020000020000FC
:100000000C942A000C94F4000C94F4000C94F4006A
:100010000C94F4000C94F4000C94F4000C94F40090
:100020000C94F4000C94F4000C94F4000C94F40080
:100030000C94F4000C94F4000C94F4000C94F40070
:100040000C94F4000C94F4000C94F4000C94F6005E
:100050000C94F60004E00EBF0FE50DBF0E943700C0
:100060000E9451000E94E4000E94F000F9CF0E941B
:100070004D001127222733270FEF01BB12BB0FEFD3
:1000800004BB25BB0FEF0ABB3BBB00E207BB0BED7C
:1000900008BB00E20BBF7894089500E804BF04BFDA
:1000A00008950E945D000A3D29F0093D19F0033DC5
:1000B00009F002C00E946000089506B30B7D089508
:1000C000F89440E40E94D3000E94D7000E947D0073
:1000D0000B3CE1F778940BEF08BB00000000000038
:1000E000000000000000000000000BED08BB4427EA
:1000F0000E94F0000E94D70008950E945D000B3C12
:10010000C9F0093D29F00A3D41F0033D59F012C004
:100110000E949B000E94D70009C00E94A3000E9479
:10012000D70004C00E94B9000E94D7000E94F000CE
:100130000E94D3000895403211F0479501C040E875
:100140000E94D3000895403829F0403441F04032F5
:1001500059F00EC013951C3358F0112709C0239590
:100160002C3330F0222704C03395383108F0332780
:100170000895403829F0403449F0403269F012C007
:100180001A951F3F79F41CE31A950CC02A952F3F4E
:1001900049F42CE32A9506C03A953F3F19F438E11B
:1001A0003A9500C00895032F042B3BBB0895FF2709
:1001B000EE27DD27F395E395D395DF3FE9F7E83F99
:1001C000D1F7F130B9F708951C3348F01127239582
:1001D0002C3328F022273395383108F0332708953F
:0C01E00012BB25BB3BBB0895139518957E
:00000001FF
