:020000020000FC
:100000000C942A000C94F3000C94F3000C94F3006D
:100010000C94F3000C94F3000C94F3000C94F30094
:100020000C94F3000C94F3000C94F3000C94F30084
:100030000C94F3000C94F3000C94F3000C94F30074
:100040000C94F3000C94F3000C94F3000C94F50062
:100050000C94F50004E00EBF0FE50DBF0E943700C1
:100060000E9451000E94E3000E94EF00F9CF0E941D
:100070004D001127222733270FEF01BB12BB0FEFD3
:1000800004BB25BB0FEF0ABB3BBB00E207BB0BED7C
:1000900008BB00E20BBF7894089500E804BF04BFDA
:1000A00008950E945D000A3D29F0093D19F0033DC5
:1000B00009F002C00E946000089506B30B7D089508
:1000C000F89440E40E94CF000E94D6000E947B007A
:1000D0000B3CE1F778940BEF08BB00000000000038
:1000E000000000000000000000000BED08BB4427EA
:1000F0000E94D60008950E945D000B3CC9F0093DA6
:1001000029F00A3D41F0033D59F012C00E949900C8
:100110000E94D60009C00E949F000E94D60004C021
:100120000E94B5000E94D6000E94EF000E94CF00FE
:100130000895403211F0479501C040E808954038D5
:1001400029F0403441F0403259F00EC013951C3371
:1001500058F0112709C023952C3330F0222704C012
:100160003395383108F033270895403829F040346A
:1001700049F0403269F012C01A951F3F79F41CE330
:100180001A950CC02A952F3F49F42CE32A9506C0F6
:100190003A953F3F19F438E13A9500C008950F931E
:1001A0000027032F042B0BBB0F910895FF27EE2789
:1001B000DD27F395E395D395DF3FE9F7E83FD1F7E6
:1001C000F130B9F708951C3348F0112723952C33EB
:1001D00028F022273395383108F03327089512BBD1
:0A01E00025BB3BBB0895139518954D
:00000001FF
