:020000020000FC
:100000000C942A000C94FA000C94FA000C94FA0058
:100010000C94FA000C94FA000C94FA000C94FA0078
:100020000C94FA000C94FA000C94FA000C94FA0068
:100030000C94FA000C94FA000C94FA000C94FA0058
:100040000C94FA000C94FA000C94FA000C94FC0046
:100050000C94FC0004E00EBF0FE50DBF0E943700BA
:100060000E9451000E94EA000E94F600F9CF0E940F
:100070004D001127222733270FEF01BB12BB0FEFD3
:1000800004BB25BB0FEF0ABB3BBB00E207BB0BED7C
:1000900008BB00E20BBF7894089500E804BF04BFDA
:1000A00008950E945D000A3D29F0093D19F0033DC5
:1000B00009F002C00E946000089506B30B7D089508
:1000C000F89440E40E94D6000E94DD000E94810066
:1000D0000B3CE1F70E94DD000E94DD000E94DD0084
:1000E0000E94DD000E94DD000E94DD000E94DD0014
:1000F0000BEF08BB0E94DD0078940BED08BB442792
:1001000008950E945D000B3CC9F0093D29F00A3DAD
:1001100041F0033D59F012C00E949F000E94DD0093
:1001200009C00E94A5000E94DD0004C00E94BC001E
:100130000E94DD000E94F6000E94D6000895403221
:1001400011F0479501C040E80895403829F0403447
:1001500041F0403261F00FC013951C3360F011275D
:100160000AC023952C3338F02227F89404C0339525
:10017000383108F033270895403829F0403449F0E9
:10018000403269F012C01A951F3F79F41CE31A95AA
:100190000CC02A952F3F49F42CE32A9506C03A95C6
:1001A0003F3F19F438E13A9500C008950F930027B6
:1001B000032F042B0BBB0F910895FF27EE27DD279C
:1001C000F395E395D395DF3FE9F7E83FD1F7F130B9
:1001D000B9F708951C3348F0112723952C3328F0E4
:1001E00022273395383108F03327089512BB25BBF9
:0801F0003BBB0895139518951F
:00000001FF
