:020000020000FC
:100000000C942A000C94F8000C94F8000C94F8005E
:100010000C94F8000C94F8000C94F8000C94F80080
:100020000C94F8000C94F8000C94F8000C94F80070
:100030000C94F8000C94F8000C94F8000C94F80060
:100040000C94F8000C94F8000C94F8000C94FA004E
:100050000C94FA0004E00EBF0FE50DBF0E943700BC
:100060000E9451000E94E8000E94F400F9CF0E9413
:100070004D001127222733270FEF01BB12BB0FEFD3
:1000800004BB25BB0FEF0ABB3BBB00E207BB0BED7C
:1000900008BB00E20BBF7894089500E804BF04BFDA
:1000A00008950E945D000A3D29F0093D19F0033DC5
:1000B00009F002C00E946000089506B30B7D089508
:1000C000F8940BEF08BB40E40E94D4000E94DB00D0
:1000D0000E9481000B3CE1F70E94DB000E94DB00E4
:1000E0000E94DB000E94DB000E94DB000E94DB001C
:1000F0000E94DB000E94DB0078940BED08BB4427D4
:1001000008950E945D000B3CC9F0093D29F00A3DAD
:1001100041F0033D59F012C00E949F000E94DB0095
:1001200009C00E94A5000E94DB0004C00E94BB0021
:100130000E94DB000E94F4000E94D4000895403227
:1001400011F0479501C040E80895403829F0403447
:1001500041F0403259F00EC013951C3358F011276E
:1001600009C023952C3330F0222704C03395383151
:1001700008F033270895403829F0403449F04032E0
:1001800069F011C01A951F3F71F41CE31A950BC05A
:100190002A952F3F41F42CE32A9505C03A953F3F1D
:1001A00011F438E13A9508950F930027032F042B9B
:1001B0000BBB0F910895FF27EE27DD27F395E395FD
:1001C000D395DF3FE9F7E83FD1F7F130B9F708956C
:1001D0001C3348F0112723952C3328F02227339520
:1001E000383108F03327089512BB25BB3BBB089577
:0401F00013951895B6
:00000001FF
