:020000020000FC
:100000000C942A000C945C000C945C000C945C0032
:100010000C945C000C945C000C945C000C945C00F0
:100020000C945C000C945C000C945C000C945C00E0
:100030000C945C000C945C000C945C000C945C00D0
:100040000C945C000C945C000C945C000C945E00BE
:100050000C945E0004E00EBF0FE50DBF0E9435005A
:100060000E944C000E945800FBCF0E9448001127BC
:10007000222733270FE301BB12BB0FE30FEF04BBB3
:1000800025BB0FE10ABB3BBB00E20BBF7894089590
:1000900000E804BF04BF08951C3349F411272395D9
:1000A0002C3329F422273395343109F4332708956A
:0C00B00012BB25BB3BBB089513951895AF
:00000001FF
